{
  "_format": "hh-sol-artifact-1",
  "contractName": "Purchase_Agreement",
  "sourceName": "contracts/Purchase_Agreement.sol",
  "abi": [
    {
      "inputs": [],
      "stateMutability": "payable",
      "type": "constructor"
    },
    {
      "inputs": [],
      "name": "invalidState",
      "type": "error"
    },
    {
      "inputs": [],
      "name": "onlyBuyer",
      "type": "error"
    },
    {
      "inputs": [],
      "name": "onlySeller",
      "type": "error"
    },
    {
      "inputs": [],
      "name": "abort",
      "outputs": [],
      "stateMutability": "nonpayable",
      "type": "function"
    },
    {
      "inputs": [],
      "name": "buyer",
      "outputs": [
        {
          "internalType": "address payable",
          "name": "",
          "type": "address"
        }
      ],
      "stateMutability": "view",
      "type": "function"
    },
    {
      "inputs": [],
      "name": "confirmPurchase",
      "outputs": [],
      "stateMutability": "payable",
      "type": "function"
    },
    {
      "inputs": [],
      "name": "confirmReceived",
      "outputs": [],
      "stateMutability": "nonpayable",
      "type": "function"
    },
    {
      "inputs": [],
      "name": "paySeller",
      "outputs": [],
      "stateMutability": "nonpayable",
      "type": "function"
    },
    {
      "inputs": [],
      "name": "seller",
      "outputs": [
        {
          "internalType": "address payable",
          "name": "",
          "type": "address"
        }
      ],
      "stateMutability": "view",
      "type": "function"
    },
    {
      "inputs": [],
      "name": "state",
      "outputs": [
        {
          "internalType": "enum Purchase_Agreement.State",
          "name": "",
          "type": "uint8"
        }
      ],
      "stateMutability": "view",
      "type": "function"
    },
    {
      "inputs": [],
      "name": "value",
      "outputs": [
        {
          "internalType": "uint256",
          "name": "",
          "type": "uint256"
        }
      ],
      "stateMutability": "view",
      "type": "function"
    }
  ],
  "bytecode": "0x608060405233600160006101000a81548173ffffffffffffffffffffffffffffffffffffffff021916908373ffffffffffffffffffffffffffffffffffffffff160217905550600234610052919061005d565b6000819055506100c7565b60006100688261008e565b91506100738361008e565b92508261008357610082610098565b5b828204905092915050565b6000819050919050565b7f4e487b7100000000000000000000000000000000000000000000000000000000600052601260045260246000fd5b610c0c806100d66000396000f3fe60806040526004361061007b5760003560e01c806373fac6f01161004e57806373fac6f014610118578063a0c97bce1461012f578063c19d93fb14610146578063d6960697146101715761007b565b806308551a531461008057806335a063b4146100ab5780633fa4f245146100c25780637150d8ae146100ed575b600080fd5b34801561008c57600080fd5b5061009561017b565b6040516100a291906109d8565b60405180910390f35b3480156100b757600080fd5b506100c06101a1565b005b3480156100ce57600080fd5b506100d761039f565b6040516100e49190610a2e565b60405180910390f35b3480156100f957600080fd5b506101026103a5565b60405161010f91906109d8565b60405180910390f35b34801561012457600080fd5b5061012d6103cb565b005b34801561013b57600080fd5b506101446105ca565b005b34801561015257600080fd5b5061015b6107d6565b60405161016891906109f3565b60405180910390f35b6101796107e9565b005b600160009054906101000a900473ffffffffffffffffffffffffffffffffffffffff1681565b3373ffffffffffffffffffffffffffffffffffffffff16600160009054906101000a900473ffffffffffffffffffffffffffffffffffffffff1673ffffffffffffffffffffffffffffffffffffffff1614610228576040517f9e23e2e400000000000000000000000000000000000000000000000000000000815260040160405180910390fd5b6000806003811115610263577f4e487b7100000000000000000000000000000000000000000000000000000000600052602160045260246000fd5b600260149054906101000a900460ff1660038111156102ab577f4e487b7100000000000000000000000000000000000000000000000000000000600052602160045260246000fd5b146102e2576040517f550cd19000000000000000000000000000000000000000000000000000000000815260040160405180910390fd5b6003600260146101000a81548160ff0219169083600381111561032e577f4e487b7100000000000000000000000000000000000000000000000000000000600052602160045260246000fd5b0217905550600160009054906101000a900473ffffffffffffffffffffffffffffffffffffffff1673ffffffffffffffffffffffffffffffffffffffff166108fc479081150290604051600060405180830381858888f1935050505015801561039b573d6000803e3d6000fd5b5050565b60005481565b600260009054906101000a900473ffffffffffffffffffffffffffffffffffffffff1681565b3373ffffffffffffffffffffffffffffffffffffffff16600260009054906101000a900473ffffffffffffffffffffffffffffffffffffffff1673ffffffffffffffffffffffffffffffffffffffff1614610452576040517f64d24e2d00000000000000000000000000000000000000000000000000000000815260040160405180910390fd5b600180600381111561048d577f4e487b7100000000000000000000000000000000000000000000000000000000600052602160045260246000fd5b600260149054906101000a900460ff1660038111156104d5577f4e487b7100000000000000000000000000000000000000000000000000000000600052602160045260246000fd5b1461050c576040517f550cd19000000000000000000000000000000000000000000000000000000000815260040160405180910390fd5b60028060146101000a81548160ff02191690836003811115610557577f4e487b7100000000000000000000000000000000000000000000000000000000600052602160045260246000fd5b0217905550600260009054906101000a900473ffffffffffffffffffffffffffffffffffffffff1673ffffffffffffffffffffffffffffffffffffffff166108fc6000549081150290604051600060405180830381858888f193505050501580156105c6573d6000803e3d6000fd5b5050565b3373ffffffffffffffffffffffffffffffffffffffff16600160009054906101000a900473ffffffffffffffffffffffffffffffffffffffff1673ffffffffffffffffffffffffffffffffffffffff1614610651576040517f9e23e2e400000000000000000000000000000000000000000000000000000000815260040160405180910390fd5b600280600381111561068c577f4e487b7100000000000000000000000000000000000000000000000000000000600052602160045260246000fd5b600260149054906101000a900460ff1660038111156106d4577f4e487b7100000000000000000000000000000000000000000000000000000000600052602160045260246000fd5b1461070b576040517f550cd19000000000000000000000000000000000000000000000000000000000815260040160405180910390fd5b6003600260146101000a81548160ff02191690836003811115610757577f4e487b7100000000000000000000000000000000000000000000000000000000600052602160045260246000fd5b0217905550600160009054906101000a900473ffffffffffffffffffffffffffffffffffffffff1673ffffffffffffffffffffffffffffffffffffffff166108fc60005460036107a79190610a5a565b9081150290604051600060405180830381858888f193505050501580156107d2573d6000803e3d6000fd5b5050565b600260149054906101000a900460ff1681565b6000806003811115610824577f4e487b7100000000000000000000000000000000000000000000000000000000600052602160045260246000fd5b600260149054906101000a900460ff16600381111561086c577f4e487b7100000000000000000000000000000000000000000000000000000000600052602160045260246000fd5b146108a3576040517f550cd19000000000000000000000000000000000000000000000000000000000815260040160405180910390fd5b60005460026108b29190610a5a565b34146108f3576040517f08c379a00000000000000000000000000000000000000000000000000000000081526004016108ea90610a0e565b60405180910390fd5b33600260006101000a81548173ffffffffffffffffffffffffffffffffffffffff021916908373ffffffffffffffffffffffffffffffffffffffff1602179055506001600260146101000a81548160ff02191690836003811115610980577f4e487b7100000000000000000000000000000000000000000000000000000000600052602160045260246000fd5b021790555050565b61099181610ab4565b82525050565b6109a081610b03565b82525050565b60006109b3602683610a49565b91506109be82610b73565b604082019050919050565b6109d281610af9565b82525050565b60006020820190506109ed6000830184610988565b92915050565b6000602082019050610a086000830184610997565b92915050565b60006020820190508181036000830152610a27816109a6565b9050919050565b6000602082019050610a4360008301846109c9565b92915050565b600082825260208201905092915050565b6000610a6582610af9565b9150610a7083610af9565b9250817fffffffffffffffffffffffffffffffffffffffffffffffffffffffffffffffff0483118215151615610aa957610aa8610b15565b5b828202905092915050565b6000610abf82610ad9565b9050919050565b6000819050610ad482610bc2565b919050565b600073ffffffffffffffffffffffffffffffffffffffff82169050919050565b6000819050919050565b6000610b0e82610ac6565b9050919050565b7f4e487b7100000000000000000000000000000000000000000000000000000000600052601160045260246000fd5b7f4e487b7100000000000000000000000000000000000000000000000000000000600052602160045260246000fd5b7f596f75206e65656420746f20706179206174206c65617374203278207468652060008201527f616d6f756e740000000000000000000000000000000000000000000000000000602082015250565b60048110610bd357610bd2610b44565b5b5056fea264697066735822122027332abb52db939bdf3144f39c279124402337dff03f2406a4ea4e4dc03d5ca164736f6c63430008040033",
  "linkReferences": {},
  "deployedLinkReferences": {}
}